{
  "contractName": "FPBeuthToken",
  "abi": [
    {
      "constant": true,
      "inputs": [
        {
          "name": "",
          "type": "address"
        }
      ],
      "name": "userBalance",
      "outputs": [
        {
          "name": "",
          "type": "uint256"
        }
      ],
      "payable": false,
      "stateMutability": "view",
      "type": "function"
    },
    {
      "constant": false,
      "inputs": [
        {
          "name": "newSellPrice",
          "type": "uint256"
        },
        {
          "name": "newBuyPrice",
          "type": "uint256"
        }
      ],
      "name": "setPrices",
      "outputs": [],
      "payable": false,
      "stateMutability": "nonpayable",
      "type": "function"
    },
    {
      "constant": true,
      "inputs": [],
      "name": "name",
      "outputs": [
        {
          "name": "",
          "type": "string"
        }
      ],
      "payable": false,
      "stateMutability": "view",
      "type": "function"
    },
    {
      "constant": false,
      "inputs": [
        {
          "name": "value",
          "type": "uint256"
        }
      ],
      "name": "buyGood",
      "outputs": [
        {
          "name": "success",
          "type": "bool"
        }
      ],
      "payable": false,
      "stateMutability": "nonpayable",
      "type": "function"
    },
    {
      "constant": false,
      "inputs": [
        {
          "name": "_spender",
          "type": "address"
        },
        {
          "name": "_value",
          "type": "uint256"
        }
      ],
      "name": "approve",
      "outputs": [
        {
          "name": "success",
          "type": "bool"
        }
      ],
      "payable": false,
      "stateMutability": "nonpayable",
      "type": "function"
    },
    {
      "constant": true,
      "inputs": [],
      "name": "totalSupply",
      "outputs": [
        {
          "name": "",
          "type": "uint256"
        }
      ],
      "payable": false,
      "stateMutability": "view",
      "type": "function"
    },
    {
      "constant": false,
      "inputs": [
        {
          "name": "_from",
          "type": "address"
        },
        {
          "name": "_to",
          "type": "address"
        },
        {
          "name": "_value",
          "type": "uint256"
        }
      ],
      "name": "transferFrom",
      "outputs": [
        {
          "name": "success",
          "type": "bool"
        }
      ],
      "payable": false,
      "stateMutability": "nonpayable",
      "type": "function"
    },
    {
      "constant": false,
      "inputs": [
        {
          "name": "url",
          "type": "string"
        }
      ],
      "name": "buyAdvert",
      "outputs": [],
      "payable": false,
      "stateMutability": "nonpayable",
      "type": "function"
    },
    {
      "constant": true,
      "inputs": [],
      "name": "decimals",
      "outputs": [
        {
          "name": "",
          "type": "uint8"
        }
      ],
      "payable": false,
      "stateMutability": "view",
      "type": "function"
    },
    {
      "constant": true,
      "inputs": [
        {
          "name": "",
          "type": "address"
        }
      ],
      "name": "investorBalance",
      "outputs": [
        {
          "name": "",
          "type": "uint256"
        }
      ],
      "payable": false,
      "stateMutability": "view",
      "type": "function"
    },
    {
      "constant": true,
      "inputs": [
        {
          "name": "url",
          "type": "string"
        }
      ],
      "name": "getAdvertValue",
      "outputs": [
        {
          "name": "value",
          "type": "uint256"
        }
      ],
      "payable": false,
      "stateMutability": "view",
      "type": "function"
    },
    {
      "constant": false,
      "inputs": [
        {
          "name": "percentCharged",
          "type": "uint256"
        },
        {
          "name": "advertWatched",
          "type": "string"
        }
      ],
      "name": "charge",
      "outputs": [],
      "payable": false,
      "stateMutability": "nonpayable",
      "type": "function"
    },
    {
      "constant": false,
      "inputs": [
        {
          "name": "_value",
          "type": "uint256"
        }
      ],
      "name": "burn",
      "outputs": [
        {
          "name": "success",
          "type": "bool"
        }
      ],
      "payable": false,
      "stateMutability": "nonpayable",
      "type": "function"
    },
    {
      "constant": true,
      "inputs": [],
      "name": "sellPrice",
      "outputs": [
        {
          "name": "",
          "type": "uint256"
        }
      ],
      "payable": false,
      "stateMutability": "view",
      "type": "function"
    },
    {
      "constant": true,
      "inputs": [
        {
          "name": "",
          "type": "address"
        }
      ],
      "name": "balanceOf",
      "outputs": [
        {
          "name": "",
          "type": "uint256"
        }
      ],
      "payable": false,
      "stateMutability": "view",
      "type": "function"
    },
    {
      "constant": false,
      "inputs": [
        {
          "name": "_from",
          "type": "address"
        },
        {
          "name": "_value",
          "type": "uint256"
        }
      ],
      "name": "burnFrom",
      "outputs": [
        {
          "name": "success",
          "type": "bool"
        }
      ],
      "payable": false,
      "stateMutability": "nonpayable",
      "type": "function"
    },
    {
      "constant": true,
      "inputs": [],
      "name": "buyPrice",
      "outputs": [
        {
          "name": "",
          "type": "uint256"
        }
      ],
      "payable": false,
      "stateMutability": "view",
      "type": "function"
    },
    {
      "constant": true,
      "inputs": [],
      "name": "owner",
      "outputs": [
        {
          "name": "",
          "type": "address"
        }
      ],
      "payable": false,
      "stateMutability": "view",
      "type": "function"
    },
    {
      "constant": true,
      "inputs": [],
      "name": "symbol",
      "outputs": [
        {
          "name": "",
          "type": "string"
        }
      ],
      "payable": false,
      "stateMutability": "view",
      "type": "function"
    },
    {
      "constant": true,
      "inputs": [
        {
          "name": "",
          "type": "address"
        }
      ],
      "name": "advert",
      "outputs": [
        {
          "name": "url",
          "type": "string"
        },
        {
          "name": "value",
          "type": "uint256"
        }
      ],
      "payable": false,
      "stateMutability": "view",
      "type": "function"
    },
    {
      "constant": false,
      "inputs": [],
      "name": "buy",
      "outputs": [
        {
          "name": "amount",
          "type": "uint256"
        }
      ],
      "payable": true,
      "stateMutability": "payable",
      "type": "function"
    },
    {
      "constant": false,
      "inputs": [
        {
          "name": "_to",
          "type": "address"
        },
        {
          "name": "_value",
          "type": "uint256"
        }
      ],
      "name": "transfer",
      "outputs": [],
      "payable": false,
      "stateMutability": "nonpayable",
      "type": "function"
    },
    {
      "constant": true,
      "inputs": [],
      "name": "getCoinCount",
      "outputs": [
        {
          "name": "coinCount",
          "type": "uint256"
        }
      ],
      "payable": false,
      "stateMutability": "view",
      "type": "function"
    },
    {
      "constant": false,
      "inputs": [
        {
          "name": "_spender",
          "type": "address"
        },
        {
          "name": "_value",
          "type": "uint256"
        },
        {
          "name": "_extraData",
          "type": "bytes"
        }
      ],
      "name": "approveAndCall",
      "outputs": [
        {
          "name": "success",
          "type": "bool"
        }
      ],
      "payable": false,
      "stateMutability": "nonpayable",
      "type": "function"
    },
    {
      "constant": true,
      "inputs": [],
      "name": "getAdvert",
      "outputs": [
        {
          "name": "advertUrl",
          "type": "string"
        }
      ],
      "payable": false,
      "stateMutability": "view",
      "type": "function"
    },
    {
      "constant": true,
      "inputs": [
        {
          "name": "",
          "type": "address"
        },
        {
          "name": "",
          "type": "address"
        }
      ],
      "name": "allowance",
      "outputs": [
        {
          "name": "",
          "type": "uint256"
        }
      ],
      "payable": false,
      "stateMutability": "view",
      "type": "function"
    },
    {
      "constant": false,
      "inputs": [
        {
          "name": "amount",
          "type": "uint256"
        }
      ],
      "name": "sell",
      "outputs": [
        {
          "name": "revenue",
          "type": "uint256"
        }
      ],
      "payable": false,
      "stateMutability": "nonpayable",
      "type": "function"
    },
    {
      "constant": false,
      "inputs": [
        {
          "name": "newOwner",
          "type": "address"
        }
      ],
      "name": "transferOwnership",
      "outputs": [],
      "payable": false,
      "stateMutability": "nonpayable",
      "type": "function"
    },
    {
      "inputs": [
        {
          "name": "initialSupply",
          "type": "uint256"
        },
        {
          "name": "tokenName",
          "type": "string"
        },
        {
          "name": "tokenSymbol",
          "type": "string"
        }
      ],
      "payable": false,
      "stateMutability": "nonpayable",
      "type": "constructor"
    },
    {
      "anonymous": false,
      "inputs": [
        {
          "indexed": true,
          "name": "from",
          "type": "address"
        },
        {
          "indexed": true,
          "name": "to",
          "type": "address"
        },
        {
          "indexed": false,
          "name": "value",
          "type": "uint256"
        }
      ],
      "name": "Transfer",
      "type": "event"
    },
    {
      "anonymous": false,
      "inputs": [
        {
          "indexed": true,
          "name": "from",
          "type": "address"
        },
        {
          "indexed": false,
          "name": "value",
          "type": "uint256"
        }
      ],
      "name": "Burn",
      "type": "event"
    }
  ],
  "bytecode": "0x60606040526012600360006101000a81548160ff021916908360ff16021790555034156200002c57600080fd5b6040516200210b3803806200210b83398101604052808051906020019091908051820191906020018051820191905050828282336000806101000a81548173ffffffffffffffffffffffffffffffffffffffff021916908373ffffffffffffffffffffffffffffffffffffffff160217905550600360009054906101000a900460ff1660ff16600a0a8302600481905550600454600560003373ffffffffffffffffffffffffffffffffffffffff1673ffffffffffffffffffffffffffffffffffffffff1681526020019081526020016000208190555081600190805190602001906200011b92919062000141565b5080600290805190602001906200013492919062000141565b50505050505050620001f0565b828054600181600116156101000203166002900490600052602060002090601f016020900481019282601f106200018457805160ff1916838001178555620001b5565b82800160010185558215620001b5579182015b82811115620001b457825182559160200191906001019062000197565b5b509050620001c49190620001c8565b5090565b620001ed91905b80821115620001e9576000816000905550600101620001cf565b5090565b90565b611f0b80620002006000396000f30060606040526004361061016a576000357c0100000000000000000000000000000000000000000000000000000000900463ffffffff1680630103c92b1461016f57806305fefda7146101bc57806306fdde03146101e857806307174ca114610276578063095ea7b3146102b157806318160ddd1461030b57806323b872dd146103345780632a2bf9a4146103ad578063313ce5671461040a578063339416811461043957806336fa99c7146104865780633a2b250e146104f757806342966c681461055d5780634b7503341461059857806370a08231146105c157806379cc67901461060e5780638620410b146106685780638da5cb5b1461069157806395d89b41146106e6578063a353fbad14610774578063a6f2ae3a1461084a578063a9059cbb14610868578063ab7e38a0146108aa578063cae9ca51146108d3578063d7f2651e14610970578063dd62ed3e146109fe578063e4849b3214610a6a578063f2fde38b14610aa1575b600080fd5b341561017a57600080fd5b6101a6600480803573ffffffffffffffffffffffffffffffffffffffff16906020019091905050610ada565b6040518082815260200191505060405180910390f35b34156101c757600080fd5b6101e66004808035906020019091908035906020019091905050610af2565b005b34156101f357600080fd5b6101fb610b5f565b6040518080602001828103825283818151815260200191508051906020019080838360005b8381101561023b578082015181840152602081019050610220565b50505050905090810190601f1680156102685780820380516001836020036101000a031916815260200191505b509250505060405180910390f35b341561028157600080fd5b6102976004808035906020019091905050610bfd565b604051808215151515815260200191505060405180910390f35b34156102bc57600080fd5b6102f1600480803573ffffffffffffffffffffffffffffffffffffffff16906020019091908035906020019091905050610c9f565b604051808215151515815260200191505060405180910390f35b341561031657600080fd5b61031e610d2c565b6040518082815260200191505060405180910390f35b341561033f57600080fd5b610393600480803573ffffffffffffffffffffffffffffffffffffffff1690602001909190803573ffffffffffffffffffffffffffffffffffffffff16906020019091908035906020019091905050610d32565b604051808215151515815260200191505060405180910390f35b34156103b857600080fd5b610408600480803590602001908201803590602001908080601f01602080910402602001604051908101604052809392919081815260200183838082843782019150505050505091905050610e5f565b005b341561041557600080fd5b61041d611026565b604051808260ff1660ff16815260200191505060405180910390f35b341561044457600080fd5b610470600480803573ffffffffffffffffffffffffffffffffffffffff16906020019091905050611039565b6040518082815260200191505060405180910390f35b341561049157600080fd5b6104e1600480803590602001908201803590602001908080601f01602080910402602001604051908101604052809392919081815260200183838082843782019150505050505091905050611051565b6040518082815260200191505060405180910390f35b341561050257600080fd5b61055b600480803590602001909190803590602001908201803590602001908080601f01602080910402602001604051908101604052809392919081815260200183838082843782019150505050505091905050611058565b005b341561056857600080fd5b61057e6004808035906020019091905050611143565b604051808215151515815260200191505060405180910390f35b34156105a357600080fd5b6105ab611247565b6040518082815260200191505060405180910390f35b34156105cc57600080fd5b6105f8600480803573ffffffffffffffffffffffffffffffffffffffff1690602001909190505061124d565b6040518082815260200191505060405180910390f35b341561061957600080fd5b61064e600480803573ffffffffffffffffffffffffffffffffffffffff16906020019091908035906020019091905050611265565b604051808215151515815260200191505060405180910390f35b341561067357600080fd5b61067b61147f565b6040518082815260200191505060405180910390f35b341561069c57600080fd5b6106a4611485565b604051808273ffffffffffffffffffffffffffffffffffffffff1673ffffffffffffffffffffffffffffffffffffffff16815260200191505060405180910390f35b34156106f157600080fd5b6106f96114aa565b6040518080602001828103825283818151815260200191508051906020019080838360005b8381101561073957808201518184015260208101905061071e565b50505050905090810190601f1680156107665780820380516001836020036101000a031916815260200191505b509250505060405180910390f35b341561077f57600080fd5b6107ab600480803573ffffffffffffffffffffffffffffffffffffffff16906020019091905050611548565b604051808060200183815260200182810382528481815460018160011615610100020316600290048152602001915080546001816001161561010002031660029004801561083a5780601f1061080f5761010080835404028352916020019161083a565b820191906000526020600020905b81548152906001019060200180831161081d57829003601f168201915b5050935050505060405180910390f35b61085261156b565b6040518082815260200191505060405180910390f35b341561087357600080fd5b6108a8600480803573ffffffffffffffffffffffffffffffffffffffff169060200190919080359060200190919050506116d0565b005b34156108b557600080fd5b6108bd6116df565b6040518082815260200191505060405180910390f35b34156108de57600080fd5b610956600480803573ffffffffffffffffffffffffffffffffffffffff1690602001909190803590602001909190803590602001908201803590602001908080601f01602080910402602001604051908101604052809392919081815260200183838082843782019150505050505091905050611726565b604051808215151515815260200191505060405180910390f35b341561097b57600080fd5b6109836118a4565b6040518080602001828103825283818151815260200191508051906020019080838360005b838110156109c35780820151818401526020810190506109a8565b50505050905090810190601f1680156109f05780820380516001836020036101000a031916815260200191505b509250505060405180910390f35b3415610a0957600080fd5b610a54600480803573ffffffffffffffffffffffffffffffffffffffff1690602001909190803573ffffffffffffffffffffffffffffffffffffffff169060200190919050506118af565b6040518082815260200191505060405180910390f35b3415610a7557600080fd5b610a8b60048080359060200190919050506118d4565b6040518082815260200191505060405180910390f35b3415610aac57600080fd5b610ad8600480803573ffffffffffffffffffffffffffffffffffffffff16906020019091905050611a72565b005b60096020528060005260406000206000915090505481565b6000809054906101000a900473ffffffffffffffffffffffffffffffffffffffff1673ffffffffffffffffffffffffffffffffffffffff163373ffffffffffffffffffffffffffffffffffffffff16141515610b4d57600080fd5b81600781905550806008819055505050565b60018054600181600116156101000203166002900480601f016020809104026020016040519081016040528092919081815260200182805460018160011615610100020316600290048015610bf55780601f10610bca57610100808354040283529160200191610bf5565b820191906000526020600020905b815481529060010190602001808311610bd857829003601f168201915b505050505081565b600081600960003373ffffffffffffffffffffffffffffffffffffffff1673ffffffffffffffffffffffffffffffffffffffff1681526020019081526020016000205410151515610c4d57600080fd5b81600960003373ffffffffffffffffffffffffffffffffffffffff1673ffffffffffffffffffffffffffffffffffffffff16815260200190815260200160002060008282540392505081905550919050565b600081600660003373ffffffffffffffffffffffffffffffffffffffff1673ffffffffffffffffffffffffffffffffffffffff16815260200190815260200160002060008573ffffffffffffffffffffffffffffffffffffffff1673ffffffffffffffffffffffffffffffffffffffff168152602001908152602001600020819055506001905092915050565b60045481565b6000600660008573ffffffffffffffffffffffffffffffffffffffff1673ffffffffffffffffffffffffffffffffffffffff16815260200190815260200160002060003373ffffffffffffffffffffffffffffffffffffffff1673ffffffffffffffffffffffffffffffffffffffff168152602001908152602001600020548211151515610dbf57600080fd5b81600660008673ffffffffffffffffffffffffffffffffffffffff1673ffffffffffffffffffffffffffffffffffffffff16815260200190815260200160002060003373ffffffffffffffffffffffffffffffffffffffff1673ffffffffffffffffffffffffffffffffffffffff16815260200190815260200160002060008282540392505081905550610e54848484611b10565b600190509392505050565b80600b60003373ffffffffffffffffffffffffffffffffffffffff1673ffffffffffffffffffffffffffffffffffffffff1681526020019081526020016000206000019080519060200190610eb5929190611e26565b50610ebf81611051565b600b60003373ffffffffffffffffffffffffffffffffffffffff1673ffffffffffffffffffffffffffffffffffffffff16815260200190815260200160002060010181905550600b60003373ffffffffffffffffffffffffffffffffffffffff1673ffffffffffffffffffffffffffffffffffffffff16815260200190815260200160002060010154600a60003373ffffffffffffffffffffffffffffffffffffffff1673ffffffffffffffffffffffffffffffffffffffff16815260200190815260200160002060008282540392505081905550600b60003373ffffffffffffffffffffffffffffffffffffffff1673ffffffffffffffffffffffffffffffffffffffff16815260200190815260200160002060010154600560003073ffffffffffffffffffffffffffffffffffffffff1673ffffffffffffffffffffffffffffffffffffffff1681526020019081526020016000206000828254019250508190555050565b600360009054906101000a900460ff1681565b600a6020528060005260406000206000915090505481565b6000919050565b600960003373ffffffffffffffffffffffffffffffffffffffff1673ffffffffffffffffffffffffffffffffffffffff16815260200190815260200160002054600960003373ffffffffffffffffffffffffffffffffffffffff1673ffffffffffffffffffffffffffffffffffffffff1681526020019081526020016000205483011115156110e657600080fd5b6064828115156110f257fe5b04600960003373ffffffffffffffffffffffffffffffffffffffff1673ffffffffffffffffffffffffffffffffffffffff168152602001908152602001600020600082825401925050819055505050565b600081600560003373ffffffffffffffffffffffffffffffffffffffff1673ffffffffffffffffffffffffffffffffffffffff168152602001908152602001600020541015151561119357600080fd5b81600560003373ffffffffffffffffffffffffffffffffffffffff1673ffffffffffffffffffffffffffffffffffffffff16815260200190815260200160002060008282540392505081905550816004600082825403925050819055503373ffffffffffffffffffffffffffffffffffffffff167fcc16f5dbb4873280815c1ee09dbd06736cffcc184412cf7a71a0fdb75d397ca5836040518082815260200191505060405180910390a260019050919050565b60075481565b60056020528060005260406000206000915090505481565b600081600560008573ffffffffffffffffffffffffffffffffffffffff1673ffffffffffffffffffffffffffffffffffffffff16815260200190815260200160002054101515156112b557600080fd5b600660008473ffffffffffffffffffffffffffffffffffffffff1673ffffffffffffffffffffffffffffffffffffffff16815260200190815260200160002060003373ffffffffffffffffffffffffffffffffffffffff1673ffffffffffffffffffffffffffffffffffffffff16815260200190815260200160002054821115151561134057600080fd5b81600560008573ffffffffffffffffffffffffffffffffffffffff1673ffffffffffffffffffffffffffffffffffffffff1681526020019081526020016000206000828254039250508190555081600660008573ffffffffffffffffffffffffffffffffffffffff1673ffffffffffffffffffffffffffffffffffffffff16815260200190815260200160002060003373ffffffffffffffffffffffffffffffffffffffff1673ffffffffffffffffffffffffffffffffffffffff16815260200190815260200160002060008282540392505081905550816004600082825403925050819055508273ffffffffffffffffffffffffffffffffffffffff167fcc16f5dbb4873280815c1ee09dbd06736cffcc184412cf7a71a0fdb75d397ca5836040518082815260200191505060405180910390a26001905092915050565b60085481565b6000809054906101000a900473ffffffffffffffffffffffffffffffffffffffff1681565b60028054600181600116156101000203166002900480601f0160208091040260200160405190810160405280929190818152602001828054600181600116156101000203166002900480156115405780601f1061151557610100808354040283529160200191611540565b820191906000526020600020905b81548152906001019060200180831161152357829003601f168201915b505050505081565b600b60205280600052604060002060009150905080600001908060010154905082565b60006008543481151561157a57fe5b04905080600560003073ffffffffffffffffffffffffffffffffffffffff1673ffffffffffffffffffffffffffffffffffffffff16815260200190815260200160002054101515156115cb57600080fd5b80600560003373ffffffffffffffffffffffffffffffffffffffff1673ffffffffffffffffffffffffffffffffffffffff1681526020019081526020016000206000828254019250508190555080600560003073ffffffffffffffffffffffffffffffffffffffff1673ffffffffffffffffffffffffffffffffffffffff168152602001908152602001600020600082825403925050819055503373ffffffffffffffffffffffffffffffffffffffff163073ffffffffffffffffffffffffffffffffffffffff167fddf252ad1be2c89b69c2b068fc378daa952ba7f163c4a11628f55a4df523b3ef836040518082815260200191505060405180910390a380905090565b6116db338383611b10565b5050565b6000600960003373ffffffffffffffffffffffffffffffffffffffff1673ffffffffffffffffffffffffffffffffffffffff16815260200190815260200160002054905090565b6000808490506117368585610c9f565b1561189b578073ffffffffffffffffffffffffffffffffffffffff16638f4ffcb1338630876040518563ffffffff167c0100000000000000000000000000000000000000000000000000000000028152600401808573ffffffffffffffffffffffffffffffffffffffff1673ffffffffffffffffffffffffffffffffffffffff1681526020018481526020018373ffffffffffffffffffffffffffffffffffffffff1673ffffffffffffffffffffffffffffffffffffffff16815260200180602001828103825283818151815260200191508051906020019080838360005b83811015611830578082015181840152602081019050611815565b50505050905090810190601f16801561185d5780820380516001836020036101000a031916815260200191505b5095505050505050600060405180830381600087803b151561187e57600080fd5b6102c65a03f1151561188f57600080fd5b5050506001915061189c565b5b509392505050565b6118ac611ea6565b90565b6006602052816000526040600020602052806000526040600020600091509150505481565b600081600560003373ffffffffffffffffffffffffffffffffffffffff1673ffffffffffffffffffffffffffffffffffffffff168152602001908152602001600020541015151561192457600080fd5b81600560003073ffffffffffffffffffffffffffffffffffffffff1673ffffffffffffffffffffffffffffffffffffffff1681526020019081526020016000206000828254019250508190555081600560003373ffffffffffffffffffffffffffffffffffffffff1673ffffffffffffffffffffffffffffffffffffffff16815260200190815260200160002060008282540392505081905550600754820290503373ffffffffffffffffffffffffffffffffffffffff166108fc829081150290604051600060405180830381858888f193505050501515611a0557600080fd5b3073ffffffffffffffffffffffffffffffffffffffff163373ffffffffffffffffffffffffffffffffffffffff167fddf252ad1be2c89b69c2b068fc378daa952ba7f163c4a11628f55a4df523b3ef846040518082815260200191505060405180910390a3809050919050565b6000809054906101000a900473ffffffffffffffffffffffffffffffffffffffff1673ffffffffffffffffffffffffffffffffffffffff163373ffffffffffffffffffffffffffffffffffffffff16141515611acd57600080fd5b806000806101000a81548173ffffffffffffffffffffffffffffffffffffffff021916908373ffffffffffffffffffffffffffffffffffffffff16021790555050565b6000808373ffffffffffffffffffffffffffffffffffffffff1614151515611b3757600080fd5b81600560008673ffffffffffffffffffffffffffffffffffffffff1673ffffffffffffffffffffffffffffffffffffffff1681526020019081526020016000205410151515611b8557600080fd5b600560008473ffffffffffffffffffffffffffffffffffffffff1673ffffffffffffffffffffffffffffffffffffffff1681526020019081526020016000205482600560008673ffffffffffffffffffffffffffffffffffffffff1673ffffffffffffffffffffffffffffffffffffffff1681526020019081526020016000205401111515611c1357600080fd5b600560008473ffffffffffffffffffffffffffffffffffffffff1673ffffffffffffffffffffffffffffffffffffffff16815260200190815260200160002054600560008673ffffffffffffffffffffffffffffffffffffffff1673ffffffffffffffffffffffffffffffffffffffff1681526020019081526020016000205401905081600560008673ffffffffffffffffffffffffffffffffffffffff1673ffffffffffffffffffffffffffffffffffffffff1681526020019081526020016000206000828254039250508190555081600560008573ffffffffffffffffffffffffffffffffffffffff1673ffffffffffffffffffffffffffffffffffffffff168152602001908152602001600020600082825401925050819055508273ffffffffffffffffffffffffffffffffffffffff168473ffffffffffffffffffffffffffffffffffffffff167fddf252ad1be2c89b69c2b068fc378daa952ba7f163c4a11628f55a4df523b3ef846040518082815260200191505060405180910390a380600560008573ffffffffffffffffffffffffffffffffffffffff1673ffffffffffffffffffffffffffffffffffffffff16815260200190815260200160002054600560008773ffffffffffffffffffffffffffffffffffffffff1673ffffffffffffffffffffffffffffffffffffffff1681526020019081526020016000205401141515611e2057fe5b50505050565b828054600181600116156101000203166002900490600052602060002090601f016020900481019282601f10611e6757805160ff1916838001178555611e95565b82800160010185558215611e95579182015b82811115611e94578251825591602001919060010190611e79565b5b509050611ea29190611eba565b5090565b602060405190810160405280600081525090565b611edc91905b80821115611ed8576000816000905550600101611ec0565b5090565b905600a165627a7a72305820db99a04ebfe3ca730ed229f4ec2b029f0c55607961efebca24e3b26052f654710029",
  "source": "pragma solidity ^0.4.18;\n\ncontract owned {\n    address public owner;\n\n    function owned() public {\n        owner = msg.sender;\n    }\n\n    modifier onlyOwner {\n        require(msg.sender == owner);\n        _;\n    }\n\n    function transferOwnership(address newOwner) onlyOwner public {\n        owner = newOwner;\n    }\n}\n\ninterface tokenRecipient { function receiveApproval(address _from, uint256 _value, address _token, bytes _extraData) public; }\n\ncontract TokenERC20 {\n    // Public variables of the token\n    string public name;\n    string public symbol;\n    uint8 public decimals = 18;\n    // 18 decimals is the strongly suggested default, avoid changing it\n    uint256 public totalSupply;\n\n    // This creates an array with all balances\n    mapping (address => uint256) public balanceOf;\n    mapping (address => mapping (address => uint256)) public allowance;\n\n    // This generates a public event on the blockchain that will notify clients\n    event Transfer(address indexed from, address indexed to, uint256 value);\n\n    // This notifies clients about the amount burnt\n    event Burn(address indexed from, uint256 value);\n\n    /**\n     * Constrctor function\n     *\n     * Initializes contract with initial supply tokens to the creator of the contract\n     */\n    function TokenERC20(\n        uint256 initialSupply,\n        string tokenName,\n        string tokenSymbol\n    ) public {\n        totalSupply = initialSupply * 10 ** uint256(decimals);  // Update total supply with the decimal amount\n        balanceOf[msg.sender] = totalSupply;                // Give the creator all initial tokens\n        name = tokenName;                                   // Set the name for display purposes\n        symbol = tokenSymbol;                               // Set the symbol for display purposes\n    }\n\n    /**\n     * Internal transfer, only can be called by this contract\n     */\n    function _transfer(address _from, address _to, uint _value) internal {\n        // Prevent transfer to 0x0 address. Use burn() instead\n        require(_to != 0x0);\n        // Check if the sender has enough\n        require(balanceOf[_from] >= _value);\n        // Check for overflows\n        require(balanceOf[_to] + _value > balanceOf[_to]);\n        // Save this for an assertion in the future\n        uint previousBalances = balanceOf[_from] + balanceOf[_to];\n        // Subtract from the sender\n        balanceOf[_from] -= _value;\n        // Add the same to the recipient\n        balanceOf[_to] += _value;\n        Transfer(_from, _to, _value);\n        // Asserts are used to use static analysis to find bugs in your code. They should never fail\n        assert(balanceOf[_from] + balanceOf[_to] == previousBalances);\n    }\n\n    /**\n     * Transfer tokens\n     *\n     * Send `_value` tokens to `_to` from your account\n     *\n     * @param _to The address of the recipient\n     * @param _value the amount to send\n     */\n    function transfer(address _to, uint256 _value) public {\n        _transfer(msg.sender, _to, _value);\n    }\n\n    /**\n     * Transfer tokens from other address\n     *\n     * Send `_value` tokens to `_to` in behalf of `_from`\n     *\n     * @param _from The address of the sender\n     * @param _to The address of the recipient\n     * @param _value the amount to send\n     */\n    function transferFrom(address _from, address _to, uint256 _value) public returns (bool success) {\n        require(_value <= allowance[_from][msg.sender]);     // Check allowance\n        allowance[_from][msg.sender] -= _value;\n        _transfer(_from, _to, _value);\n        return true;\n    }\n\n    /**\n     * Set allowance for other address\n     *\n     * Allows `_spender` to spend no more than `_value` tokens in your behalf\n     *\n     * @param _spender The address authorized to spend\n     * @param _value the max amount they can spend\n     */\n    function approve(address _spender, uint256 _value) public\n        returns (bool success) {\n        allowance[msg.sender][_spender] = _value;\n        return true;\n    }\n\n    /**\n     * Set allowance for other address and notify\n     *\n     * Allows `_spender` to spend no more than `_value` tokens in your behalf, and then ping the contract about it\n     *\n     * @param _spender The address authorized to spend\n     * @param _value the max amount they can spend\n     * @param _extraData some extra information to send to the approved contract\n     */\n    function approveAndCall(address _spender, uint256 _value, bytes _extraData)\n        public\n        returns (bool success) {\n        tokenRecipient spender = tokenRecipient(_spender);\n        if (approve(_spender, _value)) {\n            spender.receiveApproval(msg.sender, _value, this, _extraData);\n            return true;\n        }\n    }\n\n    /**\n     * Destroy tokens\n     *\n     * Remove `_value` tokens from the system irreversibly\n     *\n     * @param _value the amount of money to burn\n     */\n    function burn(uint256 _value) public returns (bool success) {\n        require(balanceOf[msg.sender] >= _value);   // Check if the sender has enough\n        balanceOf[msg.sender] -= _value;            // Subtract from the sender\n        totalSupply -= _value;                      // Updates totalSupply\n        Burn(msg.sender, _value);\n        return true;\n    }\n\n    /**\n     * Destroy tokens from other account\n     *\n     * Remove `_value` tokens from the system irreversibly on behalf of `_from`.\n     *\n     * @param _from the address of the sender\n     * @param _value the amount of money to burn\n     */\n    function burnFrom(address _from, uint256 _value) public returns (bool success) {\n        require(balanceOf[_from] >= _value);                // Check if the targeted balance is enough\n        require(_value <= allowance[_from][msg.sender]);    // Check allowance\n        balanceOf[_from] -= _value;                         // Subtract from the targeted balance\n        allowance[_from][msg.sender] -= _value;             // Subtract from the sender's allowance\n        totalSupply -= _value;                              // Update totalSupply\n        Burn(_from, _value);\n        return true;\n    }\n}\n\n/******************************************/\n/*       ADVANCED TOKEN STARTS HERE       */\n/******************************************/\n\ncontract FPBeuthToken is owned, TokenERC20 {\n    \n    function FPBeuthToken(uint256 initialSupply, string tokenName, string tokenSymbol) \n        TokenERC20(initialSupply, tokenName, tokenSymbol) public {}\n\n    uint256 public sellPrice;\n    uint256 public buyPrice; //fr diesen Preis kann der Investor unsere Tokens kaufen\n\n    function setPrices(uint256 newSellPrice, uint256 newBuyPrice) onlyOwner {\n        sellPrice = newSellPrice;\n        buyPrice = newBuyPrice;\n    }\n\n    //Der Investor kann fr Ether unsere Tokens kaufen\n    //Um die Werbung zu kaufen, gibt es eine eigene Methode buyAdvert() siehe weiter unten\n    function buy() payable returns (uint amount){\n        amount = msg.value / buyPrice;                    // calculates the amount\n        require(balanceOf[this] >= amount);               // checks if it has enough to sell\n        balanceOf[msg.sender] += amount;                  // adds the amount to buyer's balance\n        balanceOf[this] -= amount;                        // subtracts amount from seller's balance\n        Transfer(this, msg.sender, amount);               // execute an event reflecting the change\n        return amount;                                    // ends function and returns\n    }\n    //fr unseren Fall wahrscheinlich erstmal nicht notwendig\n    function sell(uint amount) returns (uint revenue){\n        require(balanceOf[msg.sender] >= amount);         // checks if the sender has enough to sell\n        balanceOf[this] += amount;                        // adds the amount to owner's balance\n        balanceOf[msg.sender] -= amount;                  // subtracts the amount from seller's balance\n        revenue = amount * sellPrice;\n        require(msg.sender.send(revenue));                // sends ether to the seller: it's important to do this last to prevent recursion attacks\n        Transfer(msg.sender, this, amount);               // executes an event reflecting on the change\n        return revenue;                                   // ends function and returns\n    }\n\n\n\n\n        \n    mapping (address => uint256) public userBalance;\n    mapping (address => uint256) public investorBalance;\n    // fr jede Adresse(eigentlich nur Investoren) gib es ein Advertisement\n    mapping (address => Advertisement) public advert;\n\n    // werbung besteht aus url und value\n    struct Advertisement {\n        string url;\n        uint256 value;\n    }\n    // ist jetzt direkt in der Methode buyAdvert oder doch in eigener Methode??\n   /* //hier werden die Werte der Werbung festgelegt\n    function setAdvert(string url) {\n        advert[msg.sender].url=url;\n        advert[msg.sender].value=getAdvertValue(url);\n\n\n    }*/\n    //Der Investor kauft Werbung; er bergibt einen String mit der Url; damit wird die Werbung gesetzt;\n    //Der Wert der Werbung wird von der InvestorBalance abgezogen und wird der TokenBalance gutgeschrieben\n    //braucht man hier am Ende noch ein Transfer-Event\n    function buyAdvert (string url) public {\n        advert[msg.sender].url=url;\n        advert[msg.sender].value=getAdvertValue(url);\n        investorBalance[msg.sender] -= advert[msg.sender].value;\n        balanceOf[this] += advert[msg.sender].value;\n\n    }\n    \n    function getAdvertValue(string url) public constant returns (uint256 value){\n\n    }\n    \n    function charge(uint256 percentCharged, string advertWatched) public {\n        require(percentCharged + userBalance[msg.sender] > userBalance[msg.sender]);\n        userBalance[msg.sender] += percentCharged/100;\n        \n        //TODO Check und Abzug von der Werbung\n    }\n    \n    function getAdvert() public constant returns (string advertUrl) {\n\n    }\n    \n    function getCoinCount() public constant returns (uint256 coinCount) {\n                return userBalance[msg.sender];\n    }\n    \n    function buyGood(uint value) public returns (bool success) {\n        require(userBalance[msg.sender] >= value);\n        userBalance[msg.sender] -= value;\n    }\n    \n}",
  "sourcePath": "/home/doebert/Dokumente/Studium/5.Semester/Blockchain/DanielFPBeuthToken/contracts/FPBeuthToken.sol",
  "compiler": {
    "name": "solc",
    "version": "0.4.18+commit.9cf6e910.Emscripten.clang"
  },
  "schemaVersion": "1.0.1",
  "updatedAt": "2017-12-13T16:07:56.619Z"
}