{
  "contractName": "owned",
  "abi": [
    {
      "constant": true,
      "inputs": [],
      "name": "owner",
      "outputs": [
        {
          "name": "",
          "type": "address"
        }
      ],
      "payable": false,
      "stateMutability": "view",
      "type": "function"
    },
    {
      "constant": false,
      "inputs": [
        {
          "name": "newOwner",
          "type": "address"
        }
      ],
      "name": "transferOwnership",
      "outputs": [],
      "payable": false,
      "stateMutability": "nonpayable",
      "type": "function"
    },
    {
      "inputs": [],
      "payable": false,
      "stateMutability": "nonpayable",
      "type": "constructor"
    }
  ],
  "bytecode": "0x6060604052341561000f57600080fd5b336000806101000a81548173ffffffffffffffffffffffffffffffffffffffff021916908373ffffffffffffffffffffffffffffffffffffffff1602179055506101ce8061005e6000396000f30060606040526004361061004c576000357c0100000000000000000000000000000000000000000000000000000000900463ffffffff1680638da5cb5b14610051578063f2fde38b146100a6575b600080fd5b341561005c57600080fd5b6100646100df565b604051808273ffffffffffffffffffffffffffffffffffffffff1673ffffffffffffffffffffffffffffffffffffffff16815260200191505060405180910390f35b34156100b157600080fd5b6100dd600480803573ffffffffffffffffffffffffffffffffffffffff16906020019091905050610104565b005b6000809054906101000a900473ffffffffffffffffffffffffffffffffffffffff1681565b6000809054906101000a900473ffffffffffffffffffffffffffffffffffffffff1673ffffffffffffffffffffffffffffffffffffffff163373ffffffffffffffffffffffffffffffffffffffff1614151561015f57600080fd5b806000806101000a81548173ffffffffffffffffffffffffffffffffffffffff021916908373ffffffffffffffffffffffffffffffffffffffff160217905550505600a165627a7a723058203b9c73c8dd7b816cf12db3861d55b86a4bc055879e5a36ea21d97e367275431e0029",
  "source": "pragma solidity ^0.4.18;\n\ncontract owned {\n    address public owner;\n\n    function owned() public {\n        owner = msg.sender;\n    }\n\n    modifier onlyOwner {\n        require(msg.sender == owner);\n        _;\n    }\n\n    function transferOwnership(address newOwner) onlyOwner public {\n        owner = newOwner;\n    }\n}\n\ninterface tokenRecipient { function receiveApproval(address _from, uint256 _value, address _token, bytes _extraData) public; }\n\ncontract TokenERC20 {\n    // Public variables of the token\n    string public name;\n    string public symbol;\n    uint8 public decimals = 18;\n    // 18 decimals is the strongly suggested default, avoid changing it\n    uint256 public totalSupply;\n\n    // This creates an array with all balances\n    mapping (address => uint256) public balanceOf;\n    mapping (address => mapping (address => uint256)) public allowance;\n\n    // This generates a public event on the blockchain that will notify clients\n    event Transfer(address indexed from, address indexed to, uint256 value);\n\n    // This notifies clients about the amount burnt\n    event Burn(address indexed from, uint256 value);\n\n    /**\n     * Constrctor function\n     *\n     * Initializes contract with initial supply tokens to the creator of the contract\n     */\n    function TokenERC20(\n        uint256 initialSupply,\n        string tokenName,\n        string tokenSymbol\n    ) public {\n        totalSupply = initialSupply * 10 ** uint256(decimals);  // Update total supply with the decimal amount\n        balanceOf[msg.sender] = totalSupply;                // Give the creator all initial tokens\n        name = tokenName;                                   // Set the name for display purposes\n        symbol = tokenSymbol;                               // Set the symbol for display purposes\n    }\n\n    /**\n     * Internal transfer, only can be called by this contract\n     */\n    function _transfer(address _from, address _to, uint _value) internal {\n        // Prevent transfer to 0x0 address. Use burn() instead\n        require(_to != 0x0);\n        // Check if the sender has enough\n        require(balanceOf[_from] >= _value);\n        // Check for overflows\n        require(balanceOf[_to] + _value > balanceOf[_to]);\n        // Save this for an assertion in the future\n        uint previousBalances = balanceOf[_from] + balanceOf[_to];\n        // Subtract from the sender\n        balanceOf[_from] -= _value;\n        // Add the same to the recipient\n        balanceOf[_to] += _value;\n        Transfer(_from, _to, _value);\n        // Asserts are used to use static analysis to find bugs in your code. They should never fail\n        assert(balanceOf[_from] + balanceOf[_to] == previousBalances);\n    }\n\n    /**\n     * Transfer tokens\n     *\n     * Send `_value` tokens to `_to` from your account\n     *\n     * @param _to The address of the recipient\n     * @param _value the amount to send\n     */\n    function transfer(address _to, uint256 _value) public {\n        _transfer(msg.sender, _to, _value);\n    }\n\n    /**\n     * Transfer tokens from other address\n     *\n     * Send `_value` tokens to `_to` in behalf of `_from`\n     *\n     * @param _from The address of the sender\n     * @param _to The address of the recipient\n     * @param _value the amount to send\n     */\n    function transferFrom(address _from, address _to, uint256 _value) public returns (bool success) {\n        require(_value <= allowance[_from][msg.sender]);     // Check allowance\n        allowance[_from][msg.sender] -= _value;\n        _transfer(_from, _to, _value);\n        return true;\n    }\n\n    /**\n     * Set allowance for other address\n     *\n     * Allows `_spender` to spend no more than `_value` tokens in your behalf\n     *\n     * @param _spender The address authorized to spend\n     * @param _value the max amount they can spend\n     */\n    function approve(address _spender, uint256 _value) public\n        returns (bool success) {\n        allowance[msg.sender][_spender] = _value;\n        return true;\n    }\n\n    /**\n     * Set allowance for other address and notify\n     *\n     * Allows `_spender` to spend no more than `_value` tokens in your behalf, and then ping the contract about it\n     *\n     * @param _spender The address authorized to spend\n     * @param _value the max amount they can spend\n     * @param _extraData some extra information to send to the approved contract\n     */\n    function approveAndCall(address _spender, uint256 _value, bytes _extraData)\n        public\n        returns (bool success) {\n        tokenRecipient spender = tokenRecipient(_spender);\n        if (approve(_spender, _value)) {\n            spender.receiveApproval(msg.sender, _value, this, _extraData);\n            return true;\n        }\n    }\n\n    /**\n     * Destroy tokens\n     *\n     * Remove `_value` tokens from the system irreversibly\n     *\n     * @param _value the amount of money to burn\n     */\n    function burn(uint256 _value) public returns (bool success) {\n        require(balanceOf[msg.sender] >= _value);   // Check if the sender has enough\n        balanceOf[msg.sender] -= _value;            // Subtract from the sender\n        totalSupply -= _value;                      // Updates totalSupply\n        Burn(msg.sender, _value);\n        return true;\n    }\n\n    /**\n     * Destroy tokens from other account\n     *\n     * Remove `_value` tokens from the system irreversibly on behalf of `_from`.\n     *\n     * @param _from the address of the sender\n     * @param _value the amount of money to burn\n     */\n    function burnFrom(address _from, uint256 _value) public returns (bool success) {\n        require(balanceOf[_from] >= _value);                // Check if the targeted balance is enough\n        require(_value <= allowance[_from][msg.sender]);    // Check allowance\n        balanceOf[_from] -= _value;                         // Subtract from the targeted balance\n        allowance[_from][msg.sender] -= _value;             // Subtract from the sender's allowance\n        totalSupply -= _value;                              // Update totalSupply\n        Burn(_from, _value);\n        return true;\n    }\n}\n\n/******************************************/\n/*       ADVANCED TOKEN STARTS HERE       */\n/******************************************/\n\ncontract FPBeuthToken is owned, TokenERC20 {\n    \n    function FPBeuthToken(uint256 initialSupply, string tokenName, string tokenSymbol) \n        TokenERC20(initialSupply, tokenName, tokenSymbol) public {}\n\n    uint256 public sellPrice;\n    uint256 public buyPrice; //für diesen Preis kann der Investor unsere Tokens kaufen\n\n    function setPrices(uint256 newSellPrice, uint256 newBuyPrice) onlyOwner {\n        sellPrice = newSellPrice;\n        buyPrice = newBuyPrice;\n    }\n\n    //Der Investor kann für Ether unsere Tokens kaufen\n    //Um die Werbung zu kaufen, gibt es eine eigene Methode buyAdvert() siehe weiter unten\n    function buy() payable returns (uint amount){\n        amount = msg.value / buyPrice;                    // calculates the amount\n        require(balanceOf[this] >= amount);               // checks if it has enough to sell\n        balanceOf[msg.sender] += amount;                  // adds the amount to buyer's balance\n        balanceOf[this] -= amount;                        // subtracts amount from seller's balance\n        Transfer(this, msg.sender, amount);               // execute an event reflecting the change\n        return amount;                                    // ends function and returns\n    }\n    //für unseren Fall wahrscheinlich erstmal nicht notwendig\n    function sell(uint amount) returns (uint revenue){\n        require(balanceOf[msg.sender] >= amount);         // checks if the sender has enough to sell\n        balanceOf[this] += amount;                        // adds the amount to owner's balance\n        balanceOf[msg.sender] -= amount;                  // subtracts the amount from seller's balance\n        revenue = amount * sellPrice;\n        require(msg.sender.send(revenue));                // sends ether to the seller: it's important to do this last to prevent recursion attacks\n        Transfer(msg.sender, this, amount);               // executes an event reflecting on the change\n        return revenue;                                   // ends function and returns\n    }\n\n\n\n\n        \n    mapping (address => uint256) public userBalance;\n    mapping (address => uint256) public investorBalance;\n    // für jede Adresse(eigentlich nur Investoren) gib es ein Advertisement\n    mapping (address => Advertisement) public advert;\n\n    // werbung besteht aus url und value\n    struct Advertisement {\n        string url;\n        uint256 value;\n    }\n    // ist jetzt direkt in der Methode buyAdvert oder doch in eigener Methode??\n   /* //hier werden die Werte der Werbung festgelegt\n    function setAdvert(string url) {\n        advert[msg.sender].url=url;\n        advert[msg.sender].value=getAdvertValue(url);\n\n\n    }*/\n    //Der Investor kauft Werbung; er übergibt einen String mit der Url; damit wird die Werbung gesetzt;\n    //Der Wert der Werbung wird von der InvestorBalance abgezogen und wird der TokenBalance gutgeschrieben\n    //braucht man hier am Ende noch ein Transfer-Event\n    function buyAdvert (string url) public {\n        advert[msg.sender].url=url;\n        advert[msg.sender].value=getAdvertValue(url);\n        investorBalance[msg.sender] -= advert[msg.sender].value;\n        balanceOf[this] += advert[msg.sender].value;\n\n    }\n    \n    function getAdvertValue(string url) public constant returns (uint256 value){\n\n    }\n    \n    function charge(uint256 percentCharged, string advertWatched) public {\n        require(percentCharged + userBalance[msg.sender] > userBalance[msg.sender]);\n        userBalance[msg.sender] += percentCharged/100;\n        \n        //TODO Check und Abzug von der Werbung\n    }\n    \n    function getAdvert() public constant returns (string advertUrl) {\n\n    }\n    \n    function getCoinCount() public constant returns (uint256 coinCount) {\n                return userBalance[msg.sender];\n    }\n    \n    function buyGood(uint value) public returns (bool success) {\n        require(userBalance[msg.sender] >= value);\n        userBalance[msg.sender] -= value;\n    }\n    \n}",
  "sourcePath": "/home/doebert/Dokumente/Studium/5.Semester/Blockchain/DanielFPBeuthToken/contracts/FPBeuthToken.sol",
  "compiler": {
    "name": "solc",
    "version": "0.4.18+commit.9cf6e910.Emscripten.clang"
  },
  "schemaVersion": "1.0.1",
  "updatedAt": "2017-12-13T16:07:57.008Z"
}